:020000040800F2
:10000000002800200D0F0008D90C0008DF0C0008A4
:10001000E50C0008EB0C0008F10C000800000000E3
:10002000000000000000000000000000F70C0008C5
:10003000030D0008000000000F0D00081B0D000854
:10004000550F0008550F0008550F0008550F000800
:10005000550F0008550F0008550F0008550F0008F0
:10006000550F0008550F0008550F0008550F0008E0
:10007000550F0008550F0008550F0008550F0008D0
:10008000550F0008550F0008550F0008550F0008C0
:10009000550F0008550F0008550F0008550F0008B0
:1000A000550F0008550F0008550F0008550F0008A0
:1000B000290D0008550F000800000000550F00082A
:1000C000550F00080000000000000000550F000858
:1000D00000000000550F0008550F00080000000048
:1000E000550F0008550F0008550F000800000000CC
:1000F0000000000000000000000000000000000000
:0C01000000000000000000005FF808F1A3
:10010C0010B5054C237833B9044B13B10448AFF345
:10011C0000800123237010BD74000020000000003B
:10012C002833000808B5034B1BB103490348AFF350
:10013C00008008BD00000000780000202833000873
:10014C00034613F8012B002AFBD1181A013870470B
:10015C0080B500AF00F0FAFE00F044F800F09AF819
:10016C0000F00EF900F07CF800F0E0F800F0B8FABE
:10017C0001220021134800F037FC322200211248E2
:10018C0000F032FC64220021104800F02DFC962275
:10019C0000210F4800F028FCC82200210D4800F077
:1001AC0023FCFA2200210C4800F01EFC00224FF424
:1001BC00FA710A4800F018FC094801F093FE00F0AF
:1001CC0063FCFCE7E10D0008190E0008390E00086D
:1001DC00590E0008790E0008990E0008B90E000897
:1001EC00FC00002080B590B000AF07F11803282266
:1001FC000021184602F050FC3B1D00221A605A6088
:10020C009A60DA601A610A23BB610123BB62102376
:10021C00FB6201233B6300237B6307F11803184641
:10022C0001F002FA0346002B01D000F011F90F2364
:10023C007B600023BB600023FB6000233B61002339
:10024C007B613B1D0021184601F06EFC0346002B20
:10025C0001D000F0FDF800BF4037BD4680BD000066
:10026C0080B500AF094B0A4A1A60084B00225A604D
:10027C00064B40F6FF729A60044801F082F903467F
:10028C00002B01D000F0E4F800BF80BDA8000020D6
:10029C000030004080B586B000AF07F108030022A3
:1002AC001A605A609A60DA603B4600221A605A6003
:1002BC001D4B4FF080421A601B4B41F63F725A6047
:1002CC00194B00229A60184B6322DA60164B0022FD
:1002DC001A61154B00229A61134801F0B3FD0346D5
:1002EC00002B01D000F0B4F84FF48053BB6007F141
:1002FC00080319460C4801F031FF0346002B01D0CE
:10030C0000F0A6F800233B6000237B603B461946B7
:10031C00054802F009F90346002B01D000F098F8CB
:10032C0000BF1837BD4680BDFC00002080B500AF73
:10033C00114B124A1A60104B4FF4E1325A600E4BBB
:10034C0000229A600C4B0022DA600B4B00221A61DF
:10035C00094B0C225A61084B00229A61064B002271
:10036C00DA61054802F04AF90346002B01D000F08F
:10037C006FF800BF80BD00BFB40000200038014002
:10038C0080B586B000AF07F1080300221A605A60EE
:10039C009A60DA602B4B9B692A4A43F00403936101
:1003AC00284B9B6903F004037B607B68254B9B699E
:1003BC00244A43F008039361224B9B6903F0080322
:1003CC003B603B68012241F63F011F4801F0A8F851
:1003DC0001227F211D4801F0A3F800224FF4FC51AB
:1003EC001A4801F09DF841F63F03BB600123FB6006
:1003FC0000233B6102237B6107F108031946124875
:10040C0000F014FF41F6FF73BB600123FB60002377
:10041C003B6102237B6107F1080319460B4800F08E
:10042C0005FF4FF46043BB600023FB6001233B617D
:10043C0007F108031946044800F0F8FE00BF18370E
:10044C00BD4680BD0010024000080140000C014078
:10045C0080B400AF72B600BFFEE7000080B483B07A
:10046C0000AF0346FB71FA79264913465B0013442F
:10047C00DB000B44163300221A70FA79214913461B
:10048C005B001344DB000B4400221A60FA791D490F
:10049C0013465B001344DB000B44083300221A6044
:1004AC00FA79184913465B001344DB000B440C33F8
:1004BC0000221A70FA79134913465B001344DB00CF
:1004CC000B44043300221A60FA790E4913465B0080
:1004DC001344DB000B441533FF221A70FA790A4BD4
:1004EC001878084913465B001344DB000B441433A3
:1004FC0002461A70044AFB79137000BF0C37BD46D4
:10050C0080BC7047440100200200002080B483B0FE
:10051C0000AF174B1B78FF2B01D1FF2322E0144BAC
:10052C001B78FB71FA79134913465B001344DB000B
:10053C000B4414331A780E4B1A70FA790D49134682
:10054C005B001344DB000B441433FF221A70FA795E
:10055C00084913465B001344DB000B44163301229D
:10056C001A70FB7918460C37BD4680BC704700BF2B
:10057C00020000204401002080B483B000AF034689
:10058C00FB71FA790E4B18780E4913465B00134435
:10059C00DB000B44143302461A70FA7909491346EE
:1005AC005B001344DB000B441533FF221A70044A22
:1005BC00FB79137000BF0C37BD4680BC704700BF81
:1005CC00010000204401002080B485B000AF034638
:1005DC003960FB71404B1B78FB73FF23BB7317E037
:1005EC00FA7B3E4913465B001344DB000B44043397
:1005FC001B683A68D31A3B60FB7BBB73FA7B3749A9
:10060C0013465B001344DB000B4414331B78FB7361
:10061C00FB7BFF2B0BD0FA7B304913465B0013445A
:10062C00DB000B4404331B683A689A42D8D8FA7939
:10063C002A4913465B001344DB000B441533BA7B89
:10064C001A70FA79254913465B001344DB000B44FE
:10065C001433FA7B1A70FA79204913465B00134461
:10066C00DB000B4404333A681A60BB7BFF2B0AD0C7
:10067C00BA7B1A4913465B001344DB000B4414335A
:10068C00FA791A7002E0144AFB791370FB7BFF2B8A
:10069C001DD0FA7B114913465B001344DB000B445D
:1006AC001533FA791A70FA7B0C4913465B00134424
:1006BC00DB000B4404331968FA7B3B68C91A074802
:1006CC0013465B001344DB0003440433196000BF82
:1006DC001437BD4680BC7047000000204401002048
:1006EC0080B483B000AF344BFF221A70324B1A78AF
:1006FC00324B1A70324B00221A700023FB714FE000
:10070C00FA79304913465B001344DB000B4400229A
:10071C001A60FA792B4913465B001344DB000B4437
:10072C00043300221A60FA79264913465B001344FD
:10073C00DB000B44083300221A60FA792149134676
:10074C005B001344DB000B440C3300221A70FB7962
:10075C00262B03D8FB790133D9B200E0FF21FA79BB
:10076C00184813465B001344DB00034414330A4659
:10077C001A70FA79134913465B001344DB000B44DF
:10078C001533FF221A70FA790E4913465B00134495
:10079C00DB000B44163300221A70FB790133FB711A
:1007AC00FB79272BACD9084B00221A7000BF0C37F1
:1007BC00BD4680BC704700BF010000200000002037
:1007CC0002000020440100209000002080B582B07F
:1007DC0000AF424B1B78FF2B78D0404B1B78FB7142
:1007EC00FA793F4913465B001344DB000B44043396
:1007FC001B68002B11D0FA79394913465B0013445E
:10080C00DB000B4404331B68591E354813465B0050
:10081C001344DB00034404331960FA79304913465E
:10082C005B001344DB000B4404331B68002B4DD1DD
:10083C00FA792B4913465B001344DB000B44143349
:10084C001B78BB71BB79FF2B09D0BA7924491346AD
:10085C005B001344DB000B441533FF221A701F4A54
:10086C00BB791370FA791E4913465B001344DB0005
:10087C000B441533FF211970F979194813465B00A5
:10088C001344DB00034415331878154A0B465B0000
:10089C000B44DB001344143302461A70FA791049E6
:1008AC0013465B001344DB000B440C331B78013301
:1008BC00D8B20B4913465B001344DB000B440C33DA
:1008CC0002461A70FB791846FFF756FE00F00EFB35
:1008DC0000F04CF800BF0837BD4680BD000000207A
:1008EC004401002080B483B000AF0346FB71FB7958
:1008FC00072B23D801A252F823F000BF29090008C6
:10090C002D090008310900083509000839090008CB
:10091C003D09000841090008450900080A4B0EE092
:10092C000A4B0CE00A4B0AE00A4B08E00A4B06E0C3
:10093C000A4B04E00A4B02E00A4B00E00A4B184653
:10094C000C37BD4680BC704740330008503300085C
:10095C007433000898330008C8330008F4330008D7
:10096C00143400082C3400085034000880B500AF53
:10097C00194B1A78194B1B789A4217D0164B1B78C7
:10098C001846FFF7AFFF0346184600F00DFA124B5E
:10099C001A78124B1A70104B1B78002B02D041F2B4
:1009AC00707300E000230E4A136012E00C4B1B68BE
:1009BC00002B0ED00A4B1B68013B094A1360084BF5
:1009CC001B68002B05D1044B00221A70054800F05F
:1009DC00EBF900BF80BD00BF90000020910000200B
:1009EC00940000207034000880B586B000AFF86029
:1009FC00B9607A60FFF78AFD0346FB75FB7DFF2B20
:100A0C0004D11F4B01221A70282334E0FA7D1D49B2
:100A1C0013465B001344DB000B44FA681A60FA7D42
:100A2C00184913465B001344DB000B4408337A6807
:100A3C001A60FA7D134913465B001344DB000B4428
:100A4C000C3300221A70BB68002B0ED1FA7D0D49B5
:100A5C0013465B001344DB000B440C3301221A7069
:100A6C00FB7D1846FFF788FD04E0FB7DB96818464E
:100A7C00FFF7AAFDFB7D18461837BD4680BD00BFA9
:100A8C00900000204401002080B584B000AF64E0E9
:100A9C00374B1B78FB73FA7B364913465B001344C8
:100AAC00DB000B4414331A78314B1A70FA7B314942
:100ABC0013465B001344DB000B441433FF221A7003
:100ACC00FA7B2C4913465B001344DB000B440C33BC
:100ADC001B78002B41D0FA7B264913465B0013444C
:100AEC00DB000B440C331B78013BD8B22149134675
:100AFC005B001344DB000B440C3302461A70FA7B88
:100B0C001C4913465B001344DB000B441B68BB60A1
:100B1C00FA7B184913465B001344DB000B44083383
:100B2C001B687B60BB68002B01D0BB6898477B6857
:100B3C00002B05D0FB7B79681846FFF745FD0CE0D0
:100B4C00FA7B0C4913465B001344DB000B44002278
:100B5C001A60FB7B1846FFF781FC054B1B78FF2BBB
:100B6C0096D100F009F800BF1037BD4680BD00BF1C
:100B7C00010000204401002080B400AF30BF00BF52
:100B8C00BD4680BC7047000080B485B000AF154BEB
:100B9C009B69144A43F001039361124B9B6903F068
:100BAC000103BB60BB680F4BDB690E4A43F08053FB
:100BBC00D3610C4BDB6903F080537B607B680A4B81
:100BCC005B68FB60FB6823F0E063FB60FB6843F051
:100BDC008063FB60044AFB68536000BF1437BD465A
:100BEC0080BC7047001002400000014080B584B00A
:100BFC0000AF78607B681B68B3F1804F13D10C4B4E
:100C0C00DB690B4A43F00103D361094BDB6903F049
:100C1C000103FB60FB68002200211C2000F0CFFACE
:100C2C001C2000F0E8FA00BF1037BD4680BD00BFA5
:100C3C000010024080B588B000AF786007F1100357
:100C4C0000221A605A609A60DA607B681B681C4A42
:100C5C00934231D11B4B9B691A4A43F480439361F5
:100C6C00184B9B6903F48043FB60FB68154B9B6935
:100C7C00144A43F004039361124B9B6903F0040381
:100C8C00BB60BB684FF400733B6102237B610323A1
:100C9C00FB6107F1100319460B4800F0C7FA4FF43B
:100CAC0080633B6100237B610023BB6107F1100370
:100CBC001946054800F0BAFA00BF2037BD4680BD82
:100CCC0000380140001002400008014080B400AF21
:100CDC00FEE780B400AFFEE780B400AFFEE780B45F
:100CEC0000AFFEE780B400AFFEE780B400AF00BFFA
:100CFC00BD4680BC704780B400AF00BFBD4680BC11
:100D0C00704780B400AF00BFBD4680BC704780B553
:100D1C0000AF00F061F900BF80BD000080B500AFEE
:100D2C00024801F02BF900BF80BD00BFFC00002081
:100D3C0080B586B000AF7860144A154BD31A7B612E
:100D4C007B693B61134B1B68002B02D1114B124A80
:100D5C001A60104B1A687B6813443A699A4207D29E
:100D6C0001F070FE03460C221A604FF0FF3309E0CD
:100D7C00084B1B68FB60074B1A687B681344054AD9
:100D8C001360FB6818461837BD4680BD002800204C
:100D9C0000040000980000201805002080B400AF6B
:100DAC0000BFBD4680BC704780B582B000AF786094
:100DBC007868FFF7C5F903469AB24FF0FF337968AC
:100DCC00034801F06BFC00BF0837BD4680BD00BF77
:100DDC00B400002080B590B000AF0A4B1B680A33FA
:100DEC00084A1360074B1A683B460749184601F03E
:100DFC005BFE3B461846FFF7D7FF00BF4037BD46AA
:100E0C0080BD00BF9C0000208834000880B500AF76
:100E1C008021044800F09CFB0348FFF7C5FF00BF8E
:100E2C0080BD00BF000C0140A434000880B500AFA9
:100E3C004FF48071034800F08BFB0348FFF7B4FFBD
:100E4C0000BF80BD000C0140B834000880B500AF75
:100E5C004FF40071034800F07BFB0348FFF7A4FF3D
:100E6C0000BF80BD000C0140CC34000880B500AF41
:100E7C004FF48061034800F06BFB0348FFF794FFCD
:100E8C0000BF80BD000C0140E034000880B500AF0D
:100E9C004FF40061034800F05BFB0348FFF784FF4D
:100EAC0000BF80BD000C0140F434000880B500AFD9
:100EBC004FF48051034800F04BFB0348FFF774FFDD
:100ECC0000BF80BD000C01400835000880B582B021
:100EDC0000AF78607B681B68B3F1804F01D1FFF7DE
:100EEC0075FC00BF0837BD4680BD000080B500AF63
:100EFC00024800F08AFB00BF80BD00BFA8000020A4
:100F0C00FFF74CFF0B480C490C4A002302E0D45865
:100F1C00C4500433C4188C42F9D3094A094C002339
:100F2C0001E013600432A242FBD301F091FDFFF704
:100F3C000FF9704700000020740000208C35000869
:100F4C007400002018050020FEE7000080B500AFFB
:100F5C00084B1B68074A43F010031360032000F092
:100F6C0023F90F2000F008F8FFF70EFE00231846B7
:100F7C0080BD00BF0020024080B582B000AF786019
:100F8C00124B1A68124B1B7819464FF47A73B3FB49
:100F9C00F1F3B2FBF3F3184600F03BF90346002BD8
:100FAC0001D001230EE07B680F2B0AD80022796850
:100FBC004FF0FF3000F003F9064A7B681360002302
:100FCC0000E0012318460837BD4680BD0400002010
:100FDC000C0000200800002080B400AF054B1B78EB
:100FEC001A46054B1B681344034A136000BFBD46E9
:100FFC0080BC70470C0000200405002080B400AFBA
:10100C00024B1B681846BD4680BC70470405002087
:10101C0080B485B000AF78607B6803F00703FB6099
:10102C000C4BDB68BB60BA684FF6FF031340BB6028
:10103C00FB681A02BB68134343F0BF6343F40033ED
:10104C00BB60044ABB68D36000BF1437BD4680BC8C
:10105C00704700BF00ED00E080B400AF044BDB68CC
:10106C001B0A03F007031846BD4680BC704700BF3F
:10107C0000ED00E080B483B000AF0346FB7197F93C
:10108C000730002B0BDBFB7903F01F02064997F9A5
:10109C0007305B09012000FA02F241F8232000BF5F
:1010AC000C37BD4680BC704700E100E080B483B0D3
:1010BC0000AF03463960FB7197F90730002B0ADB50
:1010CC003B68DAB20C4997F907301201D2B20B44E3
:1010DC0083F800230AE03B68DAB20849FB7903F095
:1010EC000F03043B1201D2B20B441A7600BF0C372B
:1010FC00BD4680BC704700BF00E100E000ED00E0A1
:10110C0080B489B000AFF860B9607A60FB6803F016
:10111C000703FB61FB69C3F10703042B28BF0423FE
:10112C00BB61FB690433062B02D9FB69033B00E06E
:10113C0000237B614FF0FF32BB6902FA03F3DA4301
:10114C00BB681A407B699A404FF0FF317B6901FA0A
:10115C0003F3D9437B680B40134318462437BD4631
:10116C0080BC704780B582B000AF78607B68013B73
:10117C00B3F1807F01D301230FE00A4A7B68013B66
:10118C0053600F214FF0FF30FFF790FF054B00220B
:10119C009A60044B07221A60002318460837BD4694
:1011AC0080BD00BF10E000E080B582B000AF786079
:1011BC007868FFF72DFF00BF0837BD4680BD80B5AE
:1011CC0086B000AF0346B9607A60FB7300237B6185
:1011DC00FFF742FF78617A68B9687869FFF790FF8A
:1011EC00024697F90F3011461846FFF75FFF00BF14
:1011FC001837BD4680BD80B582B000AF0346FB7189
:10120C0097F907301846FFF735FF00BF0837BD4682
:10121C0080BD80B582B000AF78607868FFF7A2FF20
:10122C00034618460837BD4680BD000080B48BB01D
:10123C0000AF7860396000237B6200233B6248E199
:10124C0001227B6A02FA03F3FB613B681B68FA69B3
:10125C001340BB61BA69FB699A4240F037813B6825
:10126C005B68A34A93425ED0A14A934275D8A14AC7
:10127C00934258D09F4A93426FD89F4A934252D080
:10128C009D4A934269D89D4A93424CD09B4A9342C3
:10129C0063D89B4A934246D0994A93425DD8122B0D
:1012AC002AD8122B59D801A252F823F03313000874
:1012BC000D1300081F1300086113000867130008C2
:1012CC00671300086713000867130008671300080A
:1012DC0067130008671300086713000867130008FA
:1012EC0067130008671300086713000867130008EA
:1012FC001513000829130008824A934213D02CE0DE
:10130C003B68DB683B6229E03B68DB6804333B628B
:10131C0024E03B68DB6808333B621FE03B68DB681A
:10132C000C333B621AE03B689B68002B02D1042310
:10133C003B6213E03B689B68012B05D108233B62A1
:10134C007B68FA691A6109E008233B627B68FA69D9
:10135C005A6103E000233B6200E000BFBB69FF2B36
:10136C0001D87B6801E07B6804337B61BB69FF2B90
:10137C0002D87B6A9B0002E07B6A083B9B003B61C6
:10138C007B691A680F213B6901FA03F3DB431A40AE
:10139C00396A3B6901FA03F31A437B691A603B68AB
:1013AC005B6803F08053002B00F09080564B9B69D8
:1013BC00554A43F001039361534B9B6903F00103BE
:1013CC00BB60BB68514A7B6A9B08023352F82330DE
:1013DC00FB607B6A03F003039B000F2202FA03F30A
:1013EC00DB43FA681340FB607B68494A93420DD09B
:1013FC007B68484A934207D07B68474A934201D1A5
:10140C00022304E0032302E0012300E000237A6AB4
:10141C0002F0030292009340FA681343FB603B49CD
:10142C007B6A9B080233FA6841F823203B685B68AF
:10143C0003F48013002B06D0384B9A683749BB69EC
:10144C0013438B6006E0354B9A68BB69DB43334929
:10145C0013408B603B685B6803F40013002B06D0D1
:10146C002E4BDA682D49BB691343CB6006E02B4B3E
:10147C00DA68BB69DB4329491340CB603B685B6886
:10148C0003F40033002B06D0244B5A682349BB6964
:10149C0013434B6006E0214B5A68BB69DB431F4981
:1014AC0013404B603B685B6803F48033002B06D021
:1014BC001A4B1A681949BB6913430B6006E0174BAA
:1014CC001A68BB69DB43154913400B607B6A013317
:1014DC007B623B681A687B6A22FA03F3002B7FF469
:1014EC00AFAE00BF00BF2C37BD4680BC704700BFFD
:1014FC0000003210000031100000221000002110FA
:10150C0000001210000011100010024000000140F9
:10151C0000080140000C0140001001400004014093
:10152C0080B483B000AF78600B467B8013467B7031
:10153C007B78002B03D07A887B681A6103E07B8868
:10154C001A047B681A6100BF0C37BD4680BC70471B
:10155C0080B485B000AF78600B467B807B68DB681D
:10156C00FB607A88FB6813401A04FB68D9437B88BC
:10157C000B401A437B681A6100BF1437BD4680BC10
:10158C00704780B584B000AF78607B68002B01D1C8
:10159C00012336E07B681B684CF6CC421A607B68F2
:1015AC001B6845F255521A607B681B687A68526852
:1015BC005A607B681B687A6892689A60FFF71EFD18
:1015CC00F86011E0FFF71AFD0246FB68D31A41F2EE
:1015DC003C32934208D97B681B68DB6803F0030339
:1015EC00002B01D003230CE07B681B68DB6803F045
:1015FC000303002BE6D17B681B684AF6AA221A600B
:10160C00002318461037BD4680BD80B483B000AFB0
:10161C0078607B681B684AF6AA221A600023184679
:10162C000C37BD4680BC704780B586B000AF786083
:10163C007B68002B01D101236CE27B681B6803F0F3
:10164C000103002B00F08780924B5B6803F00C03C6
:10165C00042B0CD08F4B5B6803F00C03082B12D1BE
:10166C008C4B5B6803F48033B3F5803F0BD1894B13
:10167C001B6803F40033002B6CD07B685B68002B79
:10168C0068D1012346E27B685B68B3F5803F06D1E5
:10169C00804B1B687F4A43F4803313602EE07B68D9
:1016AC005B68002B0CD17B4B1B687A4A23F480338C
:1016BC001360784B1B68774A23F4802313601DE07A
:1016CC007B685B68B3F5A02F0CD1724B1B68714A19
:1016DC0043F4802313606F4B1B686E4A43F48033D2
:1016EC0013600BE06B4B1B686A4A23F48033136066
:1016FC00684B1B68674A23F4802313607B685B6824
:10170C00002B13D0FFF77AFC386108E0FFF776FC6A
:10171C0002463B69D31A642B01D90323FAE15D4BD2
:10172C001B6803F40033002BF0D014E0FFF766FCC9
:10173C00386108E0FFF762FC02463B69D31A642B60
:10174C0001D90323E6E1534B1B6803F40033002B50
:10175C00F0D100E000BF7B681B6803F00203002B94
:10176C0063D04C4B5B6803F00C03002B0BD0494B44
:10177C005B6803F00C03082B1CD1464B5B6803F42D
:10178C008033002B16D1434B1B6803F00203002B54
:10179C0005D07B681B69012B01D00123BAE13D4BBD
:1017AC001B6823F0F8027B685B69DB003949134343
:1017BC000B603AE07B681B69002B20D0364B012272
:1017CC001A60FFF71BFC386108E0FFF717FC0246B4
:1017DC003B69D31A022B01D903239BE12D4B1B68C8
:1017EC0003F00203002BF0D02A4B1B6823F0F80205
:1017FC007B685B69DB00274913430B6015E0264BC4
:10180C0000221A60FFF7FAFB386108E0FFF7F6FBDD
:10181C0002463B69D31A022B01D903237AE11D4BF3
:10182C001B6803F00203002BF0D17B681B6803F0EC
:10183C000803002B3AD07B689B69002B19D0174BFF
:10184C0001221A60FFF7DAFB386108E0FFF7D6FBDC
:10185C0002463B69D31A022B01D903235AE10D4BE3
:10186C005B6A03F00203002BF0D0012000F0CCFAED
:10187C001CE00A4B00221A60FFF7C0FB38610FE036
:10188C00FFF7BCFB02463B69D31A022B08D9032392
:10189C0040E100BF0010024000004242800442427E
:1018AC009E4B5B6A03F00203002BE9D17B681B683B
:1018BC0003F00403002B00F0A6800023FB75974B6C
:1018CC00DB6903F08053002B0DD1944BDB69934AF9
:1018DC0043F08053D361914BDB6903F08053BB60C1
:1018EC00BB680123FB758E4B1B6803F48073002BC4
:1018FC0018D18B4B1B688A4A43F480731360FFF733
:10190C007DFB386108E0FFF779FB02463B69D31A8F
:10191C00642B01D90323FDE0814B1B6803F4807316
:10192C00002BF0D07B68DB68012B06D17B4B1B6A4C
:10193C007A4A43F0010313622DE07B68DB68002BCD
:10194C000CD1764B1B6A754A23F001031362734B5F
:10195C001B6A724A23F0040313621CE07B68DB6889
:10196C00052B0CD16D4B1B6A6C4A43F004031362BC
:10197C006A4B1B6A694A43F0010313620BE0674B25
:10198C001B6A664A23F001031362644B1B6A634AA9
:10199C0023F0040313627B68DB68002B15D0FFF780
:1019AC002DFB38610AE0FFF729FB02463B69D31A8D
:1019BC0041F28832934201D90323ABE0574B1B6AA7
:1019CC0003F00203002BEED014E0FFF717FB386195
:1019DC000AE0FFF713FB02463B69D31A41F2883247
:1019EC00934201D9032395E04C4B1B6A03F002038D
:1019FC00002BEED1FB7D012B05D1484BDB69474A0F
:101A0C0023F08053D3617B68DB69002B00F081806D
:101A1C00424B5B6803F00C03082B61D07B68DB69DD
:101A2C00022B46D13F4B00221A60FFF7E7FA3861D0
:101A3C0008E0FFF7E3FA02463B69D31A022B01D9FF
:101A4C00032367E0354B1B6803F00073002BF0D1C8
:101A5C007B681B6AB3F5803F08D1304B5B6823F47D
:101A6C0000327B689B682D4913434B602B4B5B68A2
:101A7C0023F474127B68196A7B685B6A0B432749F1
:101A8C0013434B60274B01221A60FFF7B7FA3861FA
:101A9C0008E0FFF7B3FA02463B69D31A022B01D9CF
:101AAC00032337E01D4B1B6803F00073002BF0D0B1
:101ABC002FE01C4B00221A60FFF7A0FA386108E0F7
:101ACC00FFF79CFA02463B69D31A022B01D9032378
:101ADC0020E0124B1B6803F00073002BF0D118E0D0
:101AEC007B68DB69012B01D1012313E00B4B5B6895
:101AFC00FB60FB6803F480327B681B6A9A4206D158
:101B0C00FB6803F470127B685B6A9A4201D0012374
:101B1C0000E0002318461837BD4680BD0010024077
:101B2C00007000406000424280B584B000AF786025
:101B3C0039607B68002B01D10123D0E06A4B1B6814
:101B4C0003F007033A689A4210D9674B1B6823F0DD
:101B5C00070265493B6813430B60634B1B6803F03A
:101B6C0007033A689A4201D00123B8E07B681B68EE
:101B7C0003F00203002B20D07B681B6803F00403E6
:101B8C00002B05D0594B5B68584A43F4E063536013
:101B9C007B681B6803F00803002B05D0534B5B6874
:101BAC00524A43F460535360504B5B6823F0F0028D
:101BBC007B689B684D4913434B607B681B6803F043
:101BCC000103002B40D07B685B68012B07D1474B8E
:101BDC001B6803F40033002B15D101237FE07B68D5
:101BEC005B68022B07D1414B1B6803F00073002B81
:101BFC0009D1012373E03D4B1B6803F00203002B5A
:101C0C0001D101236BE0394B5B6823F003027B6845
:101C1C005B68364913434B60FFF7F0F9F8600AE054
:101C2C00FFF7ECF90246FB68D31A41F28832934273
:101C3C0001D9032353E02D4B5B6803F00C027B6846
:101C4C005B689B009A42EBD1274B1B6803F00703A0
:101C5C003A689A4210D2244B1B6823F0070222499F
:101C6C003B6813430B60204B1B6803F007033A6877
:101C7C009A4201D0012332E07B681B6803F0040315
:101C8C00002B08D0194B5B6823F4E0627B68DB689F
:101C9C00164913434B607B681B6803F00803002B49
:101CAC0009D0124B5B6823F460527B681B69DB0024
:101CBC000E4913434B6000F021F802460B4B5B6856
:101CCC001B0903F00F030A49CB5C22FA03F3094A00
:101CDC001360094B1B681846FFF74EF90023184692
:101CEC001037BD4680BD00BF0020024000100240EE
:101CFC0024350008040000200800002080B487B0C0
:101D0C0000AF0023FB600023BB6000237B6100233A
:101D1C007B6000233B611E4B5B68FB60FB6803F040
:101D2C000C03042B02D0082B03D027E0194B3B618A
:101D3C0027E0FB689B0C03F00F03174AD35C7B6016
:101D4C00FB6803F48033002B10D0114B5B685B0CE9
:101D5C0003F00103114AD35CBB607B680D4A02FBA4
:101D6C0003F2BB68B2FBF3F37B6104E07B680C4AC3
:101D7C0002FB03F37B617B693B6102E0054B3B613A
:101D8C0000BF3B6918461C37BD4680BC704700BF7E
:101D9C000010024000127A003C3500084C35000857
:101DAC0000093D0080B400AF024B1B681846BD46CD
:101DBC0080BC70470400002080B500AFFFF7F2FF35
:101DCC000246054B5B681B0A03F007030349CB5C17
:101DDC0022FA03F3184680BD001002403435000887
:101DEC0080B500AFFFF7DEFF0246054B5B68DB0AF0
:101DFC0003F007030349CB5C22FA03F3184680BDBA
:101E0C00001002403435000880B485B000AF786013
:101E1C000A4B1B680A4AA2FB03235B0A7A6802FB83
:101E2C0003F3FB6000BFFB685A1EFA60002BF9D16C
:101E3C0000BF00BF1437BD4680BC704704000020B3
:101E4C00D34D621080B582B000AF78607B68002BF8
:101E5C0001D1012341E07B6893F83D30DBB2002BCC
:101E6C0006D17B68002283F83C207868FEF7BEFE22
:101E7C007B68022283F83D207B681A687B680433F8
:101E8C001946104600F056FA7B68012283F846206A
:101E9C007B68012283F83E207B68012283F83F2077
:101EAC007B68012283F840207B68012283F8412063
:101EBC007B68012283F842207B68012283F843204F
:101ECC007B68012283F844207B68012283F845203B
:101EDC007B68012283F83D20002318460837BD4655
:101EEC0080BD000080B485B000AF78607B6893F84B
:101EFC003D30DBB2012B01D0012335E07B6802229F
:101F0C0083F83D207B681B68DA687B681B6842F0AD
:101F1C000102DA607B681B68164A934209D07B6821
:101F2C001B68B3F1804F04D07B681B68124A934244
:101F3C0011D17B681B689B6803F00703FB60FB688F
:101F4C00062B10D07B681B681A687B681B6842F0F4
:101F5C0001021A6007E07B681B681A687B681B68C3
:101F6C0042F001021A60002318461437BD4680BCAB
:101F7C00704700BF002C01400004004080B584B0C5
:101F8C0000AF78607B681B68DB68FB607B681B6854
:101F9C001B69BB60BB6803F00203002B20D0FB68FD
:101FAC0003F00203002B1BD07B681B686FF002024E
:101FBC001A617B6801221A777B681B689B6903F0A6
:101FCC000303002B03D0786800F098F905E07868DB
:101FDC0000F08BF9786800F09AF97B6800221A7788
:101FEC00BB6803F00403002B20D0FB6803F0040350
:101FFC00002B1BD07B681B686FF004021A617B6896
:10200C0002221A777B681B689B6903F44073002BD0
:10201C0003D0786800F072F905E0786800F065F993
:10202C00786800F074F97B6800221A77BB6803F0BB
:10203C000803002B20D0FB6803F00803002B1BD0F7
:10204C007B681B686FF008021A617B6804221A77A0
:10205C007B681B68DB6903F00303002B03D07868F3
:10206C0000F04CF905E0786800F03FF9786800F072
:10207C004EF97B6800221A77BB6803F01003002B23
:10208C0020D0FB6803F01003002B1BD07B681B686F
:10209C006FF010021A617B6808221A777B681B6844
:1020AC00DB6903F44073002B03D0786800F026F949
:1020BC0005E0786800F019F9786800F028F97B6879
:1020CC0000221A77BB6803F00103002B0CD0FB68CD
:1020DC0003F00103002B07D07B681B686FF0010233
:1020EC001A617868FEF7F2FEBB6803F08003002BE0
:1020FC000CD0FB6803F08003002B07D07B681B68B7
:10210C006FF080021A61786800F06FFABB6803F018
:10211C004003002B0CD0FB6803F04003002B07D0CE
:10212C007B681B686FF040021A61786800F0F8F861
:10213C00BB6803F02003002B0CD0FB6803F02003DA
:10214C00002B07D07B681B686FF020021A6178683F
:10215C0000F042FA00BF1037BD4680BD80B584B098
:10216C0000AF786039600023FB737B6893F83C30D8
:10217C00012B01D10223B4E07B68012283F83C20BF
:10218C007B68022283F83D207B681B689B68BB60E0
:10219C00BB6823F07703BB60BB6823F47F43BB6051
:1021AC007B681B68BA689A603B681B68B3F5005F74
:1021BC003ED0B3F5005F00F28780B3F5805F00F08E
:1021CC008680B3F5805F7FD8702B1AD0702B7BD8AC
:1021DC00602B50D0602B77D8502B3CD0502B73D821
:1021EC00402B58D0402B6FD8302B64D0302B6BD871
:1021FC00202B60D0202B67D8002B5CD0102B5AD012
:10220C0062E07B6818683B6899683B685A683B6871
:10221C00DB6800F06AF97B681B689B68BB60BB6875
:10222C0043F07703BB607B681B68BA689A604FE029
:10223C007B6818683B6899683B685A683B68DB6840
:10224C0000F053F97B681B689A687B681B6842F442
:10225C0080429A603CE07B6818683B6859683B6830
:10226C00DB681A4600F0CAF87B681B6850211846D8
:10227C0000F021F92CE07B6818683B6859683B68D2
:10228C00DB681A4600F0E8F87B681B68602118468A
:10229C0000F011F91CE07B6818683B6859683B68D2
:1022AC00DB681A4600F0AAF87B681B6840211846C8
:1022BC0000F001F90CE07B681A683B681B68194652
:1022CC00104600F0F8F803E00123FB7300E000BFB8
:1022DC007B68012283F83D207B68002283F83C2038
:1022EC00FB7B18461037BD4680BD80B483B000AF71
:1022FC00786000BF0C37BD4680BC704780B483B09B
:10230C0000AF786000BF0C37BD4680BC704780B40E
:10231C0083B000AF786000BF0C37BD4680BC7047FF
:10232C0080B483B000AF786000BF0C37BD4680BC72
:10233C007047000080B485B000AF786039607B686E
:10234C001B68FB607B682B4A934207D07B68B3F118
:10235C00804F03D07B68284A934208D1FB6823F056
:10236C007003FB603B685B68FA681343FB607B6837
:10237C00204A934207D07B68B3F1804F03D07B682F
:10238C001D4A934208D1FB6823F44073FB603B6801
:10239C00DB68FA681343FB60FB6823F080023B6840
:1023AC005B691343FB607B68FA681A603B689A6848
:1023BC007B68DA623B681A687B689A627B680D4AB4
:1023CC00934203D13B681A697B681A637B680122CC
:1023DC005A617B681B6903F00103002B05D07B68F5
:1023EC001B6923F001027B681A6100BF1437BD46DC
:1023FC0080BC7047002C01400004004080B487B0C2
:10240C0000AFF860B9607A60FB681B6A7B61FB689F
:10241C001B6A23F00102FB681A62FB689B693B6133
:10242C003B6923F0F0033B617B681B013A69134362
:10243C003B617B6923F00A037B617A69BB681343B8
:10244C007B61FB683A699A61FB687A691A6200BF22
:10245C001C37BD4680BC704780B487B000AFF860B5
:10246C00B9607A60FB681B6A7B61FB681B6A23F0AE
:10247C001002FB681A62FB689B693B613B6923F4A1
:10248C0070433B617B681B033A6913433B617B6977
:10249C0023F0A0037B61BB681B017A6913437B614A
:1024AC00FB683A699A61FB687A691A6200BF1C374B
:1024BC00BD4680BC704780B485B000AF7860396091
:1024CC007B689B68FB60FB6823F07003FB603A68D9
:1024DC00FB68134343F00703FB607B68FA689A6060
:1024EC0000BF1437BD4680BC704780B487B000AFC6
:1024FC00F860B9607A603B60FB689B687B617B69C4
:10250C0023F47F437B613B681A027B681A43BB68E8
:10251C0013437A6913437B61FB687A699A6000BF45
:10252C001C37BD4680BC704780B485B000AF786066
:10253C0039607B6893F83C30012B01D1022341E0D8
:10254C007B68012283F83C207B68022283F83D20C3
:10255C007B681B685B68FB607B681B689B68BB6067
:10256C00FB6823F07003FB603B681B68FA6813433D
:10257C00FB607B681B68FA685A607B681B68144AAE
:10258C00934209D07B681B68B3F1804F04D07B6801
:10259C001B68104A93420CD1BB6823F08003BB60CC
:1025AC003B685B68BA681343BB607B681B68BA689E
:1025BC009A607B68012283F83D207B68002283F8B7
:1025CC003C20002318461437BD4680BC704700BF22
:1025DC00002C01400004004080B483B000AF786050
:1025EC0000BF0C37BD4680BC704780B483B000AFD1
:1025FC00786000BF0C37BD4680BC704780B582B098
:10260C0000AF78607B68002B01D1012342E07B682E
:10261C0093F84130DBB2002B06D17B68002283F8A3
:10262C0040207868FEF706FB7B68242283F8412063
:10263C007B681B68DA687B681B6822F40052DA60DE
:10264C00786800F071F97B681B681A697B681B68F5
:10265C0022F490421A617B681B685A697B681B687C
:10266C0022F02A025A617B681B68DA687B681B6857
:10267C0042F40052DA607B6800225A647B682022A4
:10268C0083F841207B68202283F842207B6800225B
:10269C005A63002318460837BD4680BD80B58AB002
:1026AC0002AFF860B9603B601346FB8000237B618E
:1026BC00FB6893F84130DBB2202B75D1BB68002B43
:1026CC0002D0FB88002B01D101236EE0FB680022B5
:1026DC005A64FB68212283F84120FEF78FFC786155
:1026EC00FB68FA889A84FB68FA88DA84FB689B6832
:1026FC00B3F5805F08D1FB681B69002B04D1002364
:10270C00FB61BB68BB6103E0BB68FB610023BB6181
:10271C002EE03B6800937B6900228021F86800F072
:10272C0048F80346002B05D0FB68202283F8412093
:10273C0003233AE0FB69002B0BD1BB691B881A46BB
:10274C00FB681B68C2F308025A60BB690233BB61A9
:10275C0007E0FB691A78FB681B685A60FB69013358
:10276C00FB61FB68DB8C9BB2013B9AB2FB68DA84A1
:10277C00FB68DB8C9BB2002BCBD13B6800937B6955
:10278C0000224021F86800F014F80346002B05D015
:10279C00FB68202283F84120032306E0FB682022FB
:1027AC0083F84120002300E0022318462037BD4661
:1027BC0080BD80B586B000AFF860B9603B60134651
:1027CC00FB713BE03B6AB3F1FF3F37D0FEF716FCE1
:1027DC0002463B68D31A3A6A9A4202D33B6A002BF0
:1027EC0001D103233AE0FB681B68DB6803F00403A8
:1027FC00002B23D0BB68802B20D0BB68402B1DD076
:10280C00FB681B681B6803F00803082B16D1002318
:10281C007B61FB681B681B687B61FB681B685B68E2
:10282C007B617B69F86800F01DF8FB6808225A642C
:10283C00FB68002283F8402001230FE0FB681B6833
:10284C001A68BB681340BA689A420CBF0123002374
:10285C00DBB21A46FB799A42B4D0002318461837DB
:10286C00BD4680BD80B495B000AF78607B681B68B6
:10287C000C337B637B6B53E8003F3B633B6B23F474
:10288C009073FB647B681B680C33FA6C3A64FB63D3
:10289C00F96B3A6C41E80023BB63BB6B002BE5D1B1
:1028AC007B681B6814333B623B6A53E8003FFB6157
:1028BC00FB6923F00103BB647B681B681433BA6C9F
:1028CC00FA62BB62B96AFA6A41E800237B627B6AEE
:1028DC00002BE5D17B681B6B012B19D17B681B6826
:1028EC000C33FB60FB6853E8003FBB60BB6823F014
:1028FC0010037B647B681B680C337A6CBA617B6158
:10290C007969BA6941E800233B613B69002BE5D149
:10291C007B68202283F842207B6800221A6300BF68
:10292C005437BD4680BC704780B584B000AF78602A
:10293C007B681B681B6923F440517B68DA687B68F1
:10294C001B680A431A617B689A687B681B691A4387
:10295C007B685B691343BB607B681B68DB6823F493
:10296C00B05323F00C037A681268B9680B43D36038
:10297C007B681B685B6923F440717B689A697B6890
:10298C001B680A435A617B681B682C4A934203D12B
:10299C00FFF726FAF86002E0FFF70EFAF860FA6823
:1029AC0013469B0013449A001A447B685B689B0097
:1029BC00B2FBF3F3224AA2FB03235B091901FA6869
:1029CC0013469B0013449A001A447B685B689B0077
:1029DC00B2FBF3F21A4BA3FB02035B09642000FB6E
:1029EC0003F3D31A1B013233154AA2FB03235B09F1
:1029FC0003F0F0031944FA6813469B0013449A0041
:102A0C001A447B685B689B00B2FBF3F20C4BA3FB94
:102A1C0002035B09642000FB03F3D31A1B0132335E
:102A2C00074AA2FB03235B0903F00F027B681B68B8
:102A3C000A449A6000BF1037BD4680BD0038014083
:102A4C001F85EB51014B1868704700BF1000002028
:102A5C0070B500260C4D0D4C641BA410A64209D178
:102A6C0000F05CFC00260A4D0A4C641BA410A64224
:102A7C0005D170BD55F8043B98470136EEE755F883
:102A8C00043B98470136F2E784350008843500088A
:102A9C00843500088835000803460244934200D16F
:102AAC00704703F8011BF9E70EB46FF0004100B555
:102ABC009CB01DAB029006900791049108480949FF
:102ACC0053F8042B0591006802A9019300F068F8F3
:102ADC000022029B1A701CB05DF804EB03B0704727
:102AEC00100000200802FFFF2DE9F0478E68824697
:102AFC009E420C4690461F4638D88A8912F4906F35
:102B0C0032D0256809690133A5EB010965694B448D
:102B1C0005EB450505EBD5756D109D4238BF1D467F
:102B2C00530531D5294600F053FB064650B90C230A
:102B3C004FF0FF30CAF80030A38943F04003A38163
:102B4C00BDE8F0874A46216900F0CEFAA38923F448
:102B5C00906343F08003A38126614E4426603E4679
:102B6C006561A5EB0905A560BE4200D93E4632461B
:102B7C004146206800F0C6FAA36822689B1B3244C9
:102B8C000020A3602260DBE72A4600F07BFB0646B0
:102B9C000028E1D15046216900F0CEFAC7E70000C9
:102BAC002DE9F04F98468B8907461B060D461446B7
:102BBC009DB00ED50B6963B9402100F009FB28606C
:102BCC00286120B90C233B604FF0FF30D1E040234B
:102BDC006B610023099320238DF8293030234FF0AB
:102BEC000109CDF80C80DFF8A4818DF82A3023463A
:102BFC009A4613F8012B0AB1252AF9D1BAEB040B2A
:102C0C000BD05B46224629463846FFF76DFF013054
:102C1C0000F0AA80099A5A4409929AF80030002BC5
:102C2C0000F0A28000234FF0FF32CDE905230AF11A
:102C3C00010A049307938DF853301A9354460522D6
:102C4C0014F8011B514800F041FA049AD8B9D00687
:102C5C0044BF20238DF85330110744BF2B238DF82C
:102C6C0053309AF800302A2B15D0544600204FF0E0
:102C7C000A0C079A214611F8013B303B092B4ED91F
:102C8C00B0B1079214E0A0EB080309FA03F3134365
:102C9C00A2460493D2E7039B191D1B680391002BDA
:102CAC00BBBF5B4242F0020207930793B8BF04928A
:102CBC0023782E2B0CD163782A2B35D1039B02342D
:102CCC001A1D1B680392002BB8BF4FF0FF330593FE
:102CDC00DFF8C8A003225046217800F0F7F940B184
:102CEC004023A0EB0A0003FA00F0049B01340343D9
:102CFC00049314F8011B062225488DF8281000F0C7
:102D0C00E5F9002838D0234B1BBB039B073323F07A
:102D1C00070308330393099B3344099367E70C4675
:102D2C0001200CFB0232A5E700234FF00A0C1946D8
:102D3C0001340593204610F8012B303A092A03D9A7
:102D4C00002BC5D00591C3E7044601230CFB0121E0
:102D5C00F0E703AB00932A4638460F4B04A9AFF3B8
:102D6C000080421C0646D6D1AB895B063FF52CAFE2
:102D7C0009981DB0BDE8F08F03AB00932A46384686
:102D8C00054B04A900F07CF8EBE700BF4E350008BA
:102D9C005835000800000000F52A000854350008DA
:102DAC002DE9F047164699468A680B690746934207
:102DBC00B8BF1346336091F843200C46DDF82080F1
:102DCC000AB1013333602368990642BF336802337A
:102DDC003360256815F0060506D104F1190AE3687D
:102DEC0032689B1AAB4228DC94F84320131E2268ED
:102DFC0018BF012392062DD44946384604F14302EC
:102E0C00C047013020D02368E56803F00603042B8B
:102E1C0018BF002532684FF00006A36808BFAD1A32
:102E2C00226908BF25EAE5759342C4BF9B1AED18C9
:102E3C001A34B5421AD1002008E001235246494603
:102E4C003846C047013003D14FF0FF30BDE8F08762
:102E5C000135C4E73020E11881F843005A1C94F87E
:102E6C0045102244023382F84310C5E70123224661
:102E7C0049463846C0470130E6D00136D9E7000054
:102E8C002DE9FF470C46277E9146782F80469A46BF
:102E9C000C9904F1430207D8622F0AD8002F00F0D6
:102EAC00D980582F00F0A48004F1420684F84270B7
:102EBC003AE0A7F16303152BF6D801A050F823F0E4
:102ECC00252F0008392F0008B52E0008B52E000854
:102EDC00B52E0008B52E0008392F0008B52E0008B5
:102EEC00B52E0008B52E0008B52E00084730000896
:102EFC00692F000829300008B52E0008B52E0008EF
:102F0C0069300008B52E0008692F0008B52E00089E
:102F1C00B52E0008313000080B6804F142061A1D6A
:102F2C001B680A6084F842300123A4E02568086815
:102F3C002E0600F104030AD505680B60002D03DA98
:102F4C002D236D4284F843300A235E4819E015F0B6
:102F5C00400F05680B6018BF2DB2EFE70B682568B2
:102F6C00181D0860280601D51D6802E06906FBD50E
:102F7C001D886F2F0CBF08230A235248002184F8A8
:102F8C0043106668002EA8BF2168A660A4BF21F07C
:102F9C00040121600DB9002E4DD01646B5FBF3F19E
:102FAC0003FB1157C75D06F8017D2F46BB420D464A
:102FBC00F4D9082B0BD12368DF0708D52369616886
:102FCC009942DEBF302306F8013C06F1FF36921B16
:102FDC0022614B4621464046CDF800A003AAFFF7DC
:102FEC00DFFE01304CD14FF0FF3004B0BDE8F0876C
:102FFC00344884F845700E68236856F8045B1F0645
:10300C000E6014D5D90744BF43F0200323601DB9CB
:10301C00236823F0200323601023AFE7236843F0D9
:10302C00200323607823284884F84530E3E75E06C4
:10303C0048BFADB2E6E71646BBE70B6826681D1D18
:10304C0060690D6035061B6801D5186002E07106D9
:10305C00FBD51880002316462361BAE70B681A1DAE
:10306C000A601E6800213046626800F02FF808B133
:10307C00801B606063682361002384F84330A8E7F9
:10308C003246494640462369D0470130ABD02368CD
:10309C009B0713D4E068039B9842B8BF1846A4E77B
:1030AC000123324649464046D04701309BD001357A
:1030BC00E36803995B1AAB42F2DCEBE7002504F101
:1030CC001906F5E75F35000870350008034610B5A2
:1030DC00C9B202449342184601D1002003E004789F
:1030EC0001338C42F6D110BD0A44914200F1FF33FA
:1030FC0000D1704710B511F8014B914203F8014F04
:10310C00F9D110BD884210B501EB020402D98442FA
:10311C00234607D8431EA14208D011F8012B03F80F
:10312C00012FF8E7014602448A4200D110BD13F882
:10313C00014D02F8014DF7E738B50546002943D09B
:10314C0051F8043C0C1F002BB8BFE41800F0D0F869
:10315C001E4A1368104633B9636014602846BDE8F4
:10316C00384000F0CBB8A3420AD9216862189342C8
:10317C0001BF1A685B685218226063600460EDE757
:10318C001A465B680BB1A342FAD911685018A042D9
:10319C000BD120680144501883421160DED11868AD
:1031AC005B68014411605360D8E702D90C232B6093
:1031BC00D4E7206821188B4201BF19685B68091895
:1031CC00216063605460C9E738BD00BFA0000020D7
:1031DC00F8B5CD1C25F0030508350C2D38BF0C2592
:1031EC00002D064601DBA94203D90C2333600020D5
:1031FC00F8BD00F07DF821490A6814469CB9204FAF
:10320C003B6823B92146304600F062F83860294605
:10321C00304600F05DF8431C23D10C23304633605C
:10322C0000F06CF8E3E723685B1B17D40B2B03D976
:10323C0023601C44256004E06368A2420CBF0B6051
:10324C005360304600F05AF804F10B00231D20F0B7
:10325C000700C21ACCD01B1AA350C9E722466468D7
:10326C00CCE7C41C24F00304A042E3D0211A30465E
:10327C0000F02EF80130DDD1CFE700BFA000002018
:10328C00A4000020F8B5074614460E4621B9114695
:10329C00BDE8F840FFF79CBF22B9FFF74DFF25466C
:1032AC002846F8BD00F030F8A0420FD2214638462F
:1032BC00FFF78EFF05460028F2D031462246FFF775
:1032CC0013FF31463846FFF737FFE9E73546E7E7A6
:1032DC0038B50023054D044608462B60FDF728FD44
:1032EC00431C02D12B6803B1236038BD08050020B4
:1032FC00014800F011B800BF10050020014800F093
:10330C000CB800BF1005002051F8043C181F002B0E
:10331C00BCBF0B58C018704770477047F8B500BF5A
:10332C00F8BC08BC9E467047F8B500BFF8BC08BC9A
:04333C009E467047F2
:103340005B4F4B5D204E6F206572726F720D0A00ED
:103350005B4552524F525D20546F6F206D616E7904
:10336000207461736B73207363686564756C656446
:103370000D0A00005B4552524F525D20576169743F
:10338000696E6720666F7220736C61766520746F5A
:103390002041434B0D0A00005B4552524F525D20C5
:1033A00057616974696E6720666F72207374617209
:1033B0007420636F6D6D616E642066726F6D206D39
:1033C00061737465720D0A005B4552524F525D2065
:1033D0004F6E65206F72206D6F726520736C617621
:1033E000657320646964206E6F74207374617274F5
:1033F0000D0A00005B4552524F525D204C6F7374B2
:1034000020736C61766520636F6E6E656374696F9F
:103410006E0D0A005B4552524F525D2043414E20D3
:10342000627573206572726F720D0A005B455252AD
:103430004F525D204932432077726974652065726E
:10344000726F72202841543234433634290D0A00F9
:103450005B4552524F525D20556E6B6E6F776E20FA
:103460006572726F7220636F64650D0A0000000060
:103470005B494E464F5D204572726F7220636C65EA
:10348000617265640D0A000043757272656E742086
:1034900074696D657374616D703A20256C75206D6B
:1034A000730D0A005461736B31207472696767652C
:1034B0007265640D0A0000005461736B32207472EF
:1034C000696767657265640D0A0000005461736B7B
:1034D00033207472696767657265640D0A000000C5
:1034E0005461736B34207472696767657265640D2B
:1034F0000A0000005461736B352074726967676558
:103500007265640D0A0000004F6E652073686F7469
:10351000207461736B207472696767657265640DEE
:103520000A00000000000000000000000102030487
:103530000607080900000000010203040203040555
:10354000060708090A0B0C0D0E0F10100102232D9F
:10355000302B2000686C4C0065666745464700309C
:1035600031323334353637383941424344454600E9
:1035700030313233343536373839616263646566E9
:043580000000000047
:043584003101000809
:043588000D01000829
:10358C00FFFFFF0000127A00100000000100000095
:10359C0014000020000000000000000000000000EB
:1035AC00000000000000000000000000000000000F
:1035BC0000000000000000000000000000000000FF
:1035CC0000000000000000000000000000000000EF
:1035DC0000000000000000000000000000000000DF
:1035EC0000000000000000000000000000000000CF
:0435FC0000000000CB
:0400000508000F0DD3
:00000001FF
